:100000000C942A000C9447000C9447000C94470071
:100010000C9447000C9447000C9447000C94470044
:100020000C9447000C9447000C9447000C94470034
:100030000C9447000C9447000C9447000C94470024
:100040000C9447000C9447000C9447000C94470014
:100050000C94470011241FBECFE5D8E0DEBFCDBF12
:1000600010E0A0E6B0E0E4E6FDE002C005900D92ED
:10007000A036B107D9F710E0A0E6B0E001C01D92AC
:10008000A036B107E1F70E9449000C94B0060C9429
:1000900000000F931F93CF93DF93CDB7DEB7C25607
:1000A000D0400FB6F894DEBF0FBECDBF8AE390E01C
:1000B0002FEFFC01208387E390E0FC01108288E3AE
:1000C00090E021E0FC01208386E390E0FC01808148
:1000D000882F90E081709070009709F089C41A828F
:1000E0001982CEC189819A8101969A8389838BE393
:1000F00090E0FC01108289819A81AA2797FDA09542
:10010000BA2FBC01CD010E949905DC01CB018B8384
:100110009C83AD83BE836B817C818D819E812BEA24
:100120003AEA4AEA50E40E944D06DC01CB018F8393
:100130009887A987BA8711E06F81788589859A8524
:1001400020E030E040E85FE30E94FF0488230CF0E9
:1001500010E0112319F081E08B87A3C011E06F81BB
:10016000788589859A8520E030E04FE753E40E9446
:10017000490618160CF010E0112309F489C06B81B0
:100180007C818D819E8120E030E04AE754E40E942A
:100190000305DC01CB018C879D87AE87BF876C850B
:1001A0007D858E859F8520E030E04AE755E40E94FA
:1001B0004D06DC01CB01888B998BAA8BBB8B11E0A0
:1001C000688979898A899B8920E030E040E85FE38B
:1001D0000E94FF0488230CF010E0112329F081E035
:1001E00090E09D8B8C8B46C011E0688979898A8963
:1001F0009B8920E03FEF4FE757E40E94490618161D
:100200000CF010E0112361F16C857D858E859F8552
:1002100020E030E040E251E40E944D06DC01CB01D9
:10022000BC01CD010E946B05DC01CB019D8B8C8B49
:1002300012C080E991E09F8B8E8B8E899F898C0103
:10024000C8010197F1F78C011F8B0E8B8C899D895A
:1002500001979D8B8C8B8C899D89009751F728C0C5
:10026000688979898A899B890E946B05DC01CB01A9
:100270009D8B8C8B8C899D89998F888F888D998D8A
:100280008C01F8013197F1F78F01198F088F10C099
:100290006F81788589859A850E946B05DC01CB0189
:1002A0008B878B858A8F8A8D182F1A95F1F71A8F75
:1002B0008BE390E02FEFFC01208328EE33E089816F
:1002C0009A81A901481B590BCA01AA2797FDA0953D
:1002D000BA2FBC01CD010E949905DC01CB018B8FA7
:1002E0009C8FAD8FBE8F6B8D7C8D8D8D9E8D2BEAFF
:1002F0003AEA4AEA50E40E944D06DC01CB018F8FB6
:1003000098A3A9A3BAA311E06F8D78A189A19AA19E
:1003100020E030E040E85FE30E94FF0488230CF017
:1003200010E0112319F081E08BA3A3C011E06F8DC1
:1003300078A189A19AA120E030E04FE753E40E9420
:10034000490618160CF010E0112309F489C06B8DD2
:100350007C8D8D8D9E8D20E030E04AE754E40E9434
:100360000305DC01CB018CA39DA3AEA3BFA36CA1AD
:100370007DA18EA19FA120E030E04AE755E40E94D4
:100380004D06DC01CB0188A799A7AAA7BBA711E05E
:1003900068A579A58AA59BA520E030E040E85FE349
:1003A0000E94FF0488230CF010E0112329F081E063
:1003B00090E09DA78CA746C011E068A579A58AA505
:1003C0009BA520E03FEF4FE757E40E94490618162F
:1003D0000CF010E0112361F16CA17DA18EA19FA111
:1003E00020E030E040E251E40E944D06DC01CB0108
:1003F000BC01CD010E946B05DC01CB019DA78CA740
:1004000012C080E991E09FA78EA78EA59FA58C01C1
:10041000C8010197F1F78C011FA70EA78CA59DA518
:1004200001979DA78CA78CA59DA5009751F728C083
:1004300068A579A58AA59BA50E946B05DC01CB0167
:100440009DA78CA78CA59DA599AB88AB88A999A9D8
:100450008C01F8013197F1F78F0119AB08AB10C08F
:100460006F8D78A189A19AA10E946B05DC01CB0157
:100470008BA38BA18AAB8AA9182F1A95F1F71AAB17
:1004800089819A81F3E0883E9F070CF42BCE1A8273
:100490001982A6C289819A8101969A8389838BE306
:1004A00090E02FEFFC01208389819A81AA2797FD94
:1004B000A095BA2FBC01CD010E949905DC01CB01AA
:1004C0008BAB9CABADABBEAB6BA97CA98DA99EA938
:1004D0002BEA3AEA4AEA50E40E944D06DC01CB01DD
:1004E0008FAB98AFA9AFBAAF11E06FA978AD89AD66
:1004F0009AAD20E030E040E85FE30E94FF048823EB
:100500000CF010E0112319F081E08BAFE9C011E08D
:100510006FA978AD89AD9AAD20E030E04FE753E4A4
:100520000E94490618160CF010E0112309F4CFC000
:100530006BA97CA98DA99EA920E030E04AE754E48C
:100540000E940305DC01CB018CAF9DAFAEAFBFAF06
:100550008E01005C1F4F6CAD7DAD8EAD9FAD20E078
:1005600030E04AE755E40E944D06DC01CB01F8017A
:1005700080839183A283B383CE01805C9F4F11E07F
:10058000FC01608171818281938120E030E040E84C
:100590005FE30E94FF0488230CF010E0112349F070
:1005A000CE018C5B9F4F21E030E0FC013183208342
:1005B00070C0CE01805C9F4F11E0FC0160817181B1
:1005C0008281938120E03FEF4FE757E40E94490684
:1005D00018160CF010E0112309F449C06CAD7DAD84
:1005E0008EAD9FAD20E030E040E251E40E944D0628
:1005F000DC01CB018E010C5B1F4FBC01CD010E94C1
:100600006B05DC01CB01F8019183808327C0CE010B
:100610008A5B9F4F20E931E0FC0131832083CE01CA
:100620008A5B9F4FFC01808191818C01C8010197F9
:10063000F1F78C01CE018A5B9F4FFC01118300838F
:10064000CE018C5B9F4F9E012C5B3F4FF9012081B7
:10065000318121503040FC0131832083CE018C5BFD
:100660009F4FFC0180819181009789F64CC08E01DB
:100670000C5B1F4FCE01805C9F4FFC01608171813C
:10068000828193810E946B05DC01CB01F80191838B
:100690008083CE01885B9F4F9E012C5B3F4FF90109
:1006A00020813181FC0131832083CE01885B9F4F03
:1006B000FC01808191818C01C8010197F1F78C01C7
:1006C000CE01885B9F4FFC01118300831CC06FA982
:1006D00078AD89AD9AAD0E946B05DC01CB018BAF83
:1006E000CE01865B9F4F2BADFC012083CE01865B44
:1006F0009F4FFC018081182F1A95F1F7CE01865B80
:100700009F4FFC0110838BE390E0FC01108228EEE8
:1007100033E089819A81A901481B590BCA01AA2794
:1007200097FDA095BA2FBC01CD010E949905DC016F
:10073000CB019E01255B3F4FF90180839183A2830A
:10074000B3838E01015B1F4FCE01855B9F4FFC0180
:1007500060817181828193812BEA3AEA4AEA50E40E
:100760000E944D06DC01CB01F80180839183A283B6
:10077000B383CE01815B9F4F11E0FC0160817181E9
:100780008281938120E030E040E85FE30E94FF0433
:1007900088230CF010E0112339F0CE018D5A9F4FC1
:1007A00021E0FC01208305C1CE01815B9F4F11E058
:1007B000FC01608171818281938120E030E04FE70C
:1007C00053E40E94490618160CF010E0112309F4B6
:1007D000DFC0CE01855B9F4FFC016081718182810A
:1007E000938120E030E04AE754E40E940305DC01F5
:1007F000CB019E012C5A3F4FF90180839183A28344
:10080000B3838E01085A1F4FCE018C5A9F4FFC01B3
:10081000608171818281938120E030E04AE755E474
:100820000E944D06DC01CB01F80180839183A283F5
:10083000B383CE01885A9F4F11E0FC016081718122
:100840008281938120E030E040E85FE30E94FF0472
:1008500088230CF010E0112349F0CE01845A9F4FF9
:1008600021E030E0FC013183208374C0CE01885A3E
:100870009F4F11E0FC01608171818281938120E0B2
:100880003FEF4FE757E40E94490618160CF010E0BE
:10089000112309F44DC0CE018C5A9F4FFC01608199
:1008A00071818281938120E030E040E251E40E9436
:1008B0004D06DC01CB018E01045A1F4FBC01CD0156
:1008C0000E946B05DC01CB01F8019183808327C076
:1008D000CE01825A9F4F20E931E0FC013183208311
:1008E000CE01825A9F4FFC01808191818C01C80109
:1008F0000197F1F78C01CE01825A9F4FFC011183C1
:100900000083CE01845A9F4F9E01245A3F4FF90124
:100910002081318121503040FC0131832083CE0180
:10092000845A9F4FFC0180819181009789F658C0BD
:100930008E01045A1F4FCE01885A9F4FFC016081DF
:100940007181828193810E946B05DC01CB01F801EA
:1009500091838083CE01805A9F4F9E01245A3F4F3E
:10096000F90120813181FC0131832083CE01805A3D
:100970009F4FFC01808191818C01C8010197F1F7A3
:100980008C01CE01805A9F4FFC011183008328C047
:100990008E010D5A1F4FCE01815B9F4FFC0160817C
:1009A0007181828193810E946B05DC01CB01F8018A
:1009B0008083CE018E599F4F9E012D5A3F4FF901E2
:1009C0002081FC012083CE018E599F4FFC01808144
:1009D000182F1A95F1F7CE018E599F4FFC01108305
:1009E00089819A81F3E0883E9F070CF453CD06C0BD
:1009F0008BE390E02FEFFC01208366CB65CBD4D056
:100A000008F481E008950CD00AC102D140F0F9D079
:100A100030F021F45F3F19F0EBC0511134C1EEC04A
:100A20000FD198F39923C9F35523B1F3951B550BB7
:100A3000BB27AA2762177307840738F09F5F5F4FB1
:100A4000220F331F441FAA1FA9F333D00E2E3AF0F2
:100A5000E0E830D091505040E695001CCAF729D00C
:100A6000FE2F27D0660F771F881FBB1F261737075B
:100A70004807AB07B0E809F0BB0B802DBF01FF278B
:100A800093585F4F2AF09E3F510568F0B1C0FBC0FC
:100A90005F3FECF3983EDCF3869577956795B795C5
:100AA000F7959F5FC9F7880F911D9695879597F9E0
:100AB0000895E1E0660F771F881FBB1F6217730759
:100AC0008407BA0720F0621B730B840BBA0BEE1F6E
:100AD00088F7E0950895BCD088F09F5790F0B92F23
:100AE0009927B751A0F0D1F0660F771F881F991F83
:100AF0001AF0BA95C9F712C0B13081F0C3D0B1E095
:100B00000895C0C0672F782F8827B85F39F0B93FA4
:100B1000CCF3869577956795B395D9F73EF4909584
:100B20008095709561957F4F8F4F9F4F0895E89402
:100B300009C097FB3EF490958095709561957F4F25
:100B40008F4F9F4F9923A9F0F92F96E9BB279395D3
:100B5000F695879577956795B795F111F8CFFAF4E3
:100B6000BB0F11F460FF1BC06F5F7F4F8F4F9F4F14
:100B700016C0882311F096E911C0772321F09EE872
:100B8000872F762F05C0662371F096E8862F70E0D8
:100B900060E02AF09A95660F771F881FDAF7880FB2
:100BA0009695879597F90895990F0008550FAA0B08
:100BB000E0E8FEEF16161706E807F907C0F0121670
:100BC0001306E407F50798F0621B730B840B950B73
:100BD00039F40A2661F0232B242B252B21F40895C8
:100BE0000A2609F4A140A6958FEF811D811D089565
:100BF00097F99F6780E870E060E008959FEF80ECD0
:100C0000089500240A941616170618060906089572
:100C100000240A9412161306140605060895092ED8
:100C20000394000C11F4882352F0BB0F40F4BF2B47
:100C300011F460FF04C06F5F7F4F8F4F9F4F089587
:100C400057FD9058440F551F59F05F3F71F047957D
:100C5000880F97FB991F61F09F3F79F08795089562
:100C6000121613061406551FF2CF4695F1DF08C081
:100C7000161617061806991FF1CF8695710561059E
:100C800008940895E894BB2766277727CB0197F946
:100C900008958ADF08F48FEF08950BD0C0CFB1DF3D
:100CA00028F0B6DF18F0952309F0A2CFA7CF1124C2
:100CB000EACFC6DFA0F3959FD1F3950F50E0551F03
:100CC000629FF001729FBB27F00DB11D639FAA27A1
:100CD000F00DB11DAA1F649F6627B00DA11D661FF0
:100CE000829F2227B00DA11D621F739FB00DA11D11
:100CF000621F839FA00D611D221F749F3327A00DCB
:100D0000611D231F849F600D211D822F762F6A2F66
:100D100011249F5750408AF0E1F088234AF0EE0FEB
:100D2000FF1FBB1F661F771F881F91505040A9F7F8
:100D30009E3F510570F05CCFA6CF5F3FECF3983E2D
:100D4000DCF3869577956795B795F795E7959F5F5F
:100D5000C1F7FE2B880F911D9695879597F90895F9
:040D6000F894FFCF35
:00000001FF
